:020000040000FA
:10000000831686018501831286018501843086006E
:10001000013085003720642044308600013085009F
:1000200055202C3086000130850055203030860068
:100030000130850037206D20283086000130850092
:10004000552024308600033085005520243086005A
:100050000430850037207620243086000230850069
:1000600055206430860001308500552006280D306B
:10007000A5003930A6001030A700A50B3D28A60B1F
:100080003D28A70B3D280000000008005530A500C2
:100090008A30A6000330A700A50B4C28A60B4C28DD
:1000A000A70B4C28000000000800AD30A50013305D
:1000B000A6000630A700A50B5B28A60B5B28A70BA4
:1000C0005B280000000008000430A00086134620D2
:1000D00086174620A00B662808000430A0000612F0
:1000E000462006164620A00B6F2808000430A0000A
:0E00F0000511462005154620A00B78280800B3
:0200FE000034CC
:020100000034C9
:00000001FF
