:020000040000FA
:02000000FA2BD9
:1004E0008F220800782A1F08850001309F02BB2256
:1004F000023083121D0603197E2A7F2A732A080000
:10050000882A1F0885000130940014089F07BB2229
:1005100083121D0303198D2A8E2A812A0800A8231D
:100520008312900010089100110A0319982A992A41
:10053000A12A1108900010089D009F01850101303B
:10054000A22A00300800B32A1F0894000310140CDC
:100550001F06950015089E001E08850001309400B6
:1005600014089F07BB22033083121D060319B92A02
:10057000BA2AA42A08008312920193018F22003A1A
:100580000319C32AC42AC52ADA2AC62A01308312CB
:1005900092070318930A003093071308803ACF009C
:1005A00083304F02031DD62A20301202031CD92AA1
:1005B000DA2ABE2A080083121F08031DE02AE12A56
:1005C000F52A9F019F0AF52A1F0885001F0894003D
:1005D0001407950015089F0010301F06031DF12A0F
:1005E000F22AF42A9F019F0ABB22043083121D06BF
:1005F0000319FB2AFC2AE42A0800831290008E01CA
:100600008F01831211088C000C078D000D089100DA
:10061000100801398C000C08910710088C00031099
:100620000C0C8D000D08900001308E0703188F0A06
:1006300000308F070F08803ACF0080304F02031D33
:10064000232B08300E02031C262B272B012B831291
:10065000110808008B138B15831681138501073051
:100660008600FC30831285008601412B8022412BBD
:100670007222412BA322412BDB22412B5C23412BF5
:10068000702283121D089B009C011C08003A03196C
:100690004A2B402B1B08013A0319362B033A031946
:1006A000382B013A03193A2B073A03193C2B013A2C
:1006B00003193E2B402B0028A02B1F08031D612B84
:1006C000622B662B8F30940014089F0010301F0699
:1006D000031D6B2B6C2B702B0F30940014089F00A4
:1006E00011301F02031C752B762B852B1F089400DD
:1006F00007300310940CFF3E031D792B1F08950053
:1007000015071404960016089F0010301F020318E6
:100710008A2B8B2B9B2B1F08940007300310940D02
:10072000FF3E031D8E2B1F0895000310150C1404AB
:10073000960016089F001F08FD2283128500BB2229
:10074000053083121D060319A62BA72B5D2B08006D
:1007500083128F018F0AEF308C000C088E00E82B7B
:100760000E0886000619B52BB62BBE2BB82BB82B5E
:100770008312061DBC2BBD2BB72BEE2B01308C003A
:100780000C088F078618C52BC62BCE2BC82BC82B61
:100790008312861CCC2BCD2BC72BEE2B01308C006B
:1007A0000C088F070618D52BD62BDE2BD82BD82B71
:1007B0008312061CDC2BDD2BD72BEE2B01308C009B
:1007C0000C088F070E088C000C078D000D088E009A
:1007D0000D300F02031CED2BEE2BB02B0D300F064E
:1007E000031DF32BF42BF82BFF308C000C088F002B
:1007F0000F08080083129D019E019F0183012A2B8F
:02400E00FB3F76
:00000001FF
