:020000040000FA
:02000000FE2BD5
:1005260083120514962A972A982A831205109B2A65
:100536009C2A080083120514A02A831205103B305A
:100546008C008C0BA42AA72A080083120514AB2A58
:100556008312051027308C008C0BAF2AB22A0800B4
:1005660083129200930112084B2383129000100805
:10057600930013085F23080083120514C22AC32AB6
:10058600C42A831205101D308C008C0BC82ACB2A76
:1005960008008312051421308C008C0BD02A83129C
:1005A60005100D308C008C0BD62A0800831205141A
:1005B600DC2ADD2ADE2A831205103A308C008C0BE9
:1005C600E22A000008008312051403308C008C0B0D
:1005D600EA2A8312051006308C008C0BF02A0000E4
:1005E6000800831205140D308C008C0BF82A831238
:1005F600051027308C008C0BFE2A012B0800831275
:1006060005141A308C008C0B062B00008312051083
:1006160003308C008C0B0D2B08008312051425303B
:100626008C008C0B142B831205103B308C008C0B2A
:100636001A2B1D2B08008312051405308C008C0B19
:10064600222B252B831205103B308C008C0B292B7B
:100656002C2B08008312051406308C008C0B312BD2
:1006660000008312051006308C008C0B382B00001E
:100676000800831685010F308600FC308312850042
:1006860086018B138B1583168113A923482B00280B
:1006960083128D00640083168818522B532B4D2B22
:1006A60083120D0889003F308C000C0883168805DC
:1006B600081483120808080083128F007A2BE6229A
:1006C600A82B2D23A82BF422A82B0223A82BCC225F
:1006D600A82BA822A82BD922A82B1023A82B93221B
:1006E600A82B9D22A82BBF22A82B1E23A82B0F08C0
:1006F6008D008E010E08003A0319822BA82B0D08D7
:10070600013A0319622B033A0319642B013A0319C0
:10071600662B073A0319682B013A03196A2B033A29
:1007260003196C2B013A03196E2B0F3A0319702B20
:10073600013A0319722B033A0319742B013A031970
:10074600762B073A0319782BA82B080083129701FA
:10075600970AEF30940014089600EC2B16088600D2
:100766008619B62BB72BC02BBA2B1708B3228312C8
:10077600861DBE2BBF2BB82BF22B0130940014081C
:1007860097070619C72BC82BD12BCB2B1708B322DB
:100796008312061DCF2BD02BC92BF22B01309400D0
:1007A600140897078618D82BD92BE22BDC2B1708B1
:1007B600B3228312861CE02BE12BDA2BF22B0130BD
:1007C6009400140897071608940014079500150856
:1007D60096000D301702031CF12BF22BB12B0D30B6
:1007E6001706031DF72BF82BFC2BFF30940014087B
:0A07F60097001708080083013C2B50
:10420000010002000300040005000600070008008A
:1042100009000A000B000C0005000600070008005A
:00000001FF
