:020000040000FA
:020000000B28CB
:10000800CE00030E83128D000A088E0012280C28D9
:1000180083129D019E019F018301E5280B1D152870
:100028001628302801308C000C089D071F03031D7B
:100038001E281F2828280A301D06031D24282528C5
:1000480028289E019E0A9D010A301D06031D2D28A1
:100058002E282F289D010B118B1C332834286A2841
:1000680035288312061C39283A2835288B101F0892
:10007800031D3F2840284828810101308C000C08C6
:100088009F079E019D016A2802301F06031D4D2807
:100098004E2850289F016A281F03031D54285528FD
:1000A8005F281E08031D59285A285F2801308C0034
:1000B8000C089F076A281F03031D632864286A2801
:1000C8001E03031D682869286A284E280E088A001E
:1000D8000D0E8300CE0E4E0E0900831294007F2869
:1000E8009C209B2866219B28C12027219B2806212C
:1000F8009B2847219B281408920093011308003A73
:10010800031987289B281208013A03197428033A0F
:1001180003197628013A03197828073A0319792828
:10012800013A03197B28033A03197D289B28080004
:10013800831291011F08031DA228A328A428C02800
:1001480086170330900097308F008F0BA928900BEB
:10015800A928AE288312861306308F008F0BB22889
:100168000000013083128F000F0891071030110230
:10017800031CBF28C0289E280800831291011F086D
:10018800031DC728C828C928E428861721308F00EE
:100198008F0BCC28831286130B30900062308F00AF
:1001A8008F0BD428900BD4280000013083128F00C5
:1001B8000F08910710301102031CE328E428C32814
:1001C8000800831601138B168B110B160B11831263
:1001D80081018B177F3083168600073081008312D8
:1001E8001F03031DF828F928FA289F2102308312DB
:1001F8001F06031D0029012902298521831685016F
:10020800F3280B28831291011F08031D0C290D29BF
:100218000E29262986170B30900062308F008F0B2D
:100228001329900B13290000831286131B29013010
:1002380083128F000F08910705301102031C25292E
:10024800262908290800831290011F08031D2D295B
:100258002E292F294629861785308F008F0B3229A2
:100268008312861342308F008F0B3829000001302B
:1002780083128F000F08900710301002031C4529C5
:10028800462929290800831290011F08031D4D29BA
:100298004E294F296529861785308F008F0B5229E3
:1002A8008312861385308F008F0B582901308312F3
:1002B8008F000F08900706301002031C6429652977
:1002C80049290800831290011F08031D6C296D2914
:1002D8006E298429861703308F008F0B71298312AA
:1002E80086130D308F008F0B7729013083128F0012
:1002F8000F08900710301002031C832984296829ED
:100308000800831298010330950015089700170814
:10031800B62183129500150898001808712001303D
:10032800831295001508970706301702031C9D29AC
:100338009E298B2908008312980197011708B62176
:10034800831295001508980018087120013083124F
:1003580095001508970703301702031CB429B5291F
:10036800A229080083129000640083168818BD290A
:10037800BE29B8298312100889003F308F000F0862
:0C0388008316880508148312080808007A
:02400E00FB3F76
:104200000100020003000400050006000400210074
:104210000100EA000500100002003800040003005D
:00000001FF
