:020000040000FA
:020000000528D1
:040002000034003492
:080008007128831686018501B1
:1000100007308100831286018501831285018601E4
:100020008B168B1705168101A82011083420861322
:10003000A4208617120834200613A42006171308DC
:1000400034208612A4208616140834200612A42018
:100050000616150834208611A420861516083420AB
:100060000611A4200615152882073F284428492890
:100070004E28532858285D28622867286C281F308E
:100080008500FD308600080006308500FC308600C3
:1000900008001B308500FE30860008000F30850008
:1000A000FE308600080006308500FF30860008001C
:1000B0000D308500FF30860008001D308500FF30C0
:1000C0008600080007308500FC30860008001F30DD
:1000D0008500FF30860008000F308500FF30860065
:1000E0000800A100030EA000900A0A301002031DB0
:1000F0009E289001910A0A301102031D9E28910149
:10010000920A06301202031D9E289201930A0A30B9
:100110001302031D9E289301940A06301402031D46
:100120009E289401950A04301502031D9E2895010E
:10013000960A03301602031D9E289601200E8300A6
:10014000A10E210E0B1109000000000000000800A4
:10015000063091000530920008309300043094007E
:0A01600003309500023096000800FD
:02400E00F13F80
:00000001FF
