:020000040000FA
:02000000FE2BD5
:1005B80083128D00640083168818E32AE42ADE2A51
:1005C80083120D0889003F308C000C0883168805BB
:1005D8000814831208080800831299001908840077
:1005E8000A3083130006031DFA2AFB2A062B190872
:1005F800053E84000C300006031D032B042B062B3C
:1006080019088F2308008316850107308600FC30FF
:100618008312850086018B138B15831681133D2366
:1006280083129A001A08A500250A03191C2B1D2BF2
:10063800392B0A3026020318222B232B2F2B2508AF
:100648009A0026081B3E84001A0883138000013094
:100658009A001A08A6070A302606031D342B352BE4
:10066800392B1B30F0228312A60109308500132B89
:10067800002883128F018F0AEF308C000C088E003F
:100688007D2B0E08860006194A2B4B2B532B4D2B1E
:100698004D2B8312061D512B522B4C2B832B0130D3
:1006A8008C000C088F0786185A2B5B2B632B5D2B4D
:1006B8005D2B8312861C612B622B5C2B832B0130F4
:1006C8008C000C088F0706186A2B6B2B732B6D2B6D
:1006D8006D2B8312061C712B722B6C2B832B013014
:1006E8008C000C088F070E088C000C078D000D0875
:1006F8008E000D300F02031C822B832B452B0D30EF
:100708000F06031D882B892B8D2BFF308C000C08BE
:100718008F000F080800831292009301980191013D
:100728009601970183121708950016089400C12BAB
:1007380083121408DC2283128E000E089800120817
:100748008E0016088E0214080E078F000F0884000A
:100758008313000818060319B22BB32BB52B93018A
:10076800D72B01308E000E0891079301930A0130B0
:1007780094070318950A0030950716080A3E8E005C
:1007880017080318013E003E8F001508803A9000B4
:100798000F08803A1002031DD32B0E081402031C05
:1007A800D62BD72B9C2B83121303031DDC2BDD2B9D
:1007B800E82B850108308F00C9308E008E0BE22BA4
:1007C8008F0BE22BE72BFD2B16080A3E9600170825
:1007D8000318013E003E97001708803ACF0080308A
:1007E8004F02031DF92B28301602031CFC2BFD2B8E
:0807F800962B08008301072B7A
:104200000A0001000200030004000C00010001008C
:10421000010001000A0001000100010001000C0082
:1042200002000200020002000A0002000200020076
:1042300002000C0003000300030003000A00030057
:104240000300030003000C00040004000400040049
:00000001FF
